:020000040800F2
:1000000000500020C55C000835570008395700082B
:100010003D57000841570008455700080000000000
:10002000000000000000000000000000414C00083B
:100030004957000800000000D14C00084D57000847
:100040000D5D00080D5D00080D5D00080D5D0008E8
:100050000D5D00080D5D00080D5D00080D5D0008D8
:100060000D5D00080D5D00080D5D00080D5D0008C8
:100070000D5D00080D5D00080D5D00080D5D0008B8
:100080000D5D00080D5D00080D5D00080D5D0008A8
:10009000655700080D5D00080D5D00080D5D000846
:1000A0000D5D00080D5D00080D5D00080D5D000888
:1000B0000D5D0008715700080D5D00080D5D00081A
:1000C0000D5D00080D5D00080D5D00080D5D000868
:1000D0000D5D00080D5D00087D5700080D5D0008EE
:1000E0000D5D00080D5D00080D5D000800000000BA
:1000F0000000000000000000000000000000000000
:0C01000000000000000000005FF808F1A3
:1001100010B5054C237833B9044B13B10448AFF341
:1001200000800123237010BDFC01002000000000AE
:100130009C65000808B5034B1BB103490348AFF3A6
:10014000008008BD00000000000200209C6500083F
:10015000402110B5047842788378C2B08DF8094008
:100160008DF80A208DF80B308DF80810C31C00F1B3
:100170007F0403AA53F8041B9C4242F8041BF9D1E4
:100180000A23074A90F87F4078211068009302AA5A
:1001900081238DF8884000F08DFD42B010BD00BF76
:1001A0009C1500202DE9F043064CC3B044F62063B3
:1001B00001227821206000F0EBFE28B1002043B03E
:1001C000BDE8F0839C1500200A254FF42E4C4FF417
:1001D00000574FF48058064602AA0223782120686F
:1001E0000095ADF808C000F065FD02AA0223782151
:1001F00020680095ADF8087000F05CFD02AA0223AB
:10020000782120680095ADF8088000F053FD4FF488
:10021000304C02AA0223782120680095ADF808C06E
:1002200000F048FD4FF4484C02AA022378212068D0
:100230000095ADF808C000F03DFD02AA0223782128
:1002400020680095ADF8086000F034FD02AA022392
:10025000782120680095ADF8088000F02BFD4FF460
:10026000804C02AA0223782120680095ADF808C0CE
:1002700000F020FD4FF4014C02AA022378212068EF
:100280000095ADF808C000F015FD4FF47F4C02AAB0
:100290000223782120680095ADF808C000F00AFD1F
:1002A0004FF4214C02AA0223782120680095ADF872
:1002B00008C000F0FFFC4FF4264C02AA022378216C
:1002C00020680095ADF808C000F0F4FC4FF4284C0D
:1002D00002AA0223782120680095ADF808C000F03A
:1002E000E9FC4FF47C5C02AA022378212068009587
:1002F000ADF808C000F0DEFC4FF4244C02AA022343
:10030000782120680095ADF808C000F0D3FC4FF4C8
:10031000534C02AA0223782120680095ADF808C04A
:1003200000F0C8FC02AA0223782120680095ADF8ED
:10033000086000F0BFFC4FF4554C02AA022378215C
:1003400020680095ADF808C000F0B4FC4FF4704C84
:1003500002AA0223782120680095ADF808C000F0B9
:10036000A9FC4FF4594C02AA022378212068009579
:10037000ADF808C000F09EFC4FF4085C02AA02230E
:10038000782120680095ADF808C000F093FC4FF488
:100390005A4C02AA0223782120680095ADF808C0C3
:1003A00000F088FC4FF4905C02AA022378212068B8
:1003B0000095ADF808C000F07DFC4FF45B4C02AA3C
:1003C0000223782120680095ADF808C000F072FC87
:1003D000ADF808704FF40D4702AA02237821206877
:1003E000009500F067FCADF808704FF4A05702AA22
:1003F000022378212068009500F05CFCADF80870BD
:100400004FF42F4702AA022378212068009500F0BC
:1004100051FCADF808704FF4385702AA0223782136
:100420002068009500F046FC02AA0223782120688B
:100430000095ADF8087000F03DFC31464FF4806245
:10044000254805F09AFCB027DFF88C800DF189066D
:100450004FF00009022302AA7821206800958DF848
:1004600009708DF8089000F025FC022302AA78217B
:1004700020680095ADF8089000F01CFC4FF4805CFB
:10048000022302AA782120680095ADF808C000F088
:1004900011FC402142460DF109038DF8081052F875
:1004A000041B43F8041BB342F9D1013720680095BF
:1004B000812302AA7821FFB200F0FCFBB82F08F1DB
:1004C0008008C5D1012200211046044B19605A71E1
:1004D00043B0BDE8F08300BF2002002018020020D6
:1004E0002DE9F041B0244FF00008174F174E84B0AB
:1004F0000A25022303AA7821306800958DF80D4063
:100500008DF80C8000F0D6FB022303AA7821306816
:100510000095ADF80C8000F0CDFB4FF4805C022319
:1005200003AA7821306800950134ADF80CC0E4B21C
:1005300000F0C0FB3846FFF70BFEB82C07F1800730
:10054000D6D104B0BDE8F081200200209C15002027
:10055000014B188059807047180200202DE9F04F98
:100560008246007887B0002879D0002A4FF0000436
:1005700008BF0123714F18BF00233E790CBF00252F
:100580000125A64204BF1D46134602937B88B7F897
:1005900000E00393DFF8A8810B7801950EEB0302CE
:1005A0007F2A00F3A6804D78039FEE193F2E00F3BB
:1005B000A080002D00F0BE80A0F12002CDE9040A49
:1005C00000249146BA4609FB05404A6832F810708B
:1005D00083B301260AEB040080B200F0070206FA9A
:1005E00002F252B2C6083F286FEA020C4FEAC61662
:1005F00020D80298012836D00198002857D1724699
:100600000FE07F2A02EB060506D818F805300CEA41
:10061000030308F805300B7801300132984292B29A
:1006200007D207FA00F52D04EBD57F2AF4D89519E7
:10063000EBE74D780134AC42C5D3DDE9040A9AF802
:1006400000400EEB0302A0421FFA82FE74D11AF89A
:10065000010F01240028A1D1384BA3F800E00020AD
:1006600007B0BDE8F08F019D70467DB147E07F285F
:1006700000EB060B05D818F80B30134308F80B30C5
:100680000B78013501309D4280B2D2D207FA05FBCA
:100690001BF4004FEBD17F28F3D800EB060B18F8C2
:1006A0000B300CEA030308F80B300B78E9E7002560
:1006B0000DE07F2800EB060B06D818F80B300CEA8B
:1006C000030308F80B300B780135AB42B1D907FAB8
:1006D00005FB0EEB05001BF4004F80B2E9D17F282B
:1006E000F2D8304418F80030134308F800300B7883
:1006F000EAE7002CB4D0114BA3F800E0B0E70025E6
:100700000EE07F2800EB060C05D818F80C301343D8
:1007100008F80C300B7801350130AB4280B288D933
:1007200007FA05FC1CF4004FEBD07F28F3D800EB50
:10073000060CEAE7044686E72046DCE718020020BC
:100740002002002038B54FF47A730D490D4A09781C
:100750001268B3FBF1F30546B2FBF3F000F090F83A
:1007600008B90F2D01D9012038BD0446024629469B
:100770004FF0FF3000F040F8034B20461D6038BDBD
:1007800018000020340100201C000020074A08B592
:100790001368032043F01003136000F01BF80F20D0
:1007A000FFF7D0FF04F090FE002008BD00200240BB
:1007B000034A044B11681B780B441360704700BF59
:1007C000A015002018000020014B1868704700BFDA
:1007D000A01500204FF6FF01064A0002D36800F47E
:1007E000E0600B4043F0BF6343F400330343D36046
:1007F000704700BF00ED00E0184B30B4DB68C3F376
:100800000223C3F10705042D03F1040428BF0425C6
:10081000062C19D94FF0FF34033B9C4022EA040414
:100820004FF0FF32AA4021EA020101FA03F222430B
:1008300012010028D2B20ADB00F1604000F56140ED
:1008400080F8002330BC704700242346E8E7044BBF
:1008500000F00F0003441A7630BC704700ED00E052
:10086000FCEC00E0002807DB012300F01F01034A35
:100870008B40400942F82030704700BF00E100E0A3
:100880000138B0F1807F0DD230B4F025002207216D
:10089000054B064C586084F82350104630BC9A60D3
:1008A000196070470120704710E000E000ED00E0A3
:1008B00038B590F82130022B04D004220124826341
:1008C000204638BD03681D491A688B4222F00E028B
:1008D0001A601A6822F001021A6021D0184A934265
:1008E0001CD0143293421DD0143293421DD01432C6
:1008F00093421DD0143293420CBF4FF480134FF03B
:100900008073012100240F4D426B6B6080F8211031
:1009100080F820407AB19047204638BD1023F0E798
:100920000123EEE74FF48073EBE74FF48053E8E7E1
:100930004FF48033E5E71446C2E700BF08000240E9
:100940001C000240000002400A68002A00F0DB8020
:100950002DE9F04F4FF0000A85B05546DFF8D0C1C1
:10096000DFF8D0E16D4FDFF8D08103E0013532FAD6
:1009700005F378D00123AB4002EA0304A342F5D18A
:100980004A68122A00F09E8000F28780022A00F056
:100990009D807CD9032A69D0112A02D1CB6803F14A
:1009A000040AFF2C66D881460368AA000F2606FABF
:1009B00002FB23EA0B030AFA02F21343C9F80030E0
:1009C0004A68D30061D5DCF8189025F0030349F09C
:1009D0000109CCF81890DCF8189003F1804309F075
:1009E0000109CDF80C9003F5803305F00309DDF81B
:1009F0000CB04FEA8909D3F808B006FA09F62BEAD9
:100A000006067045019611D0404563D0444EB04271
:100A10007AD0444EB0420CBF4FF0030B4FF0040BA2
:100A2000019E0BFA09F946EA090601969E603B68A9
:100A3000D6034CBF2343A3433B607B6896034CBF64
:100A40002343A3437B60BB68D6024CBF2343A3432D
:100A5000BB609202FB6815D51C43FC600A68013537
:100A600032FA05F386D105B0BDE8F08FFF2C4FF0C8
:100A7000000A98D905F18042083A4368920000F1D3
:100A8000040993E723EA0404FC600A686EE7A2B154
:100A9000012A86D1D1F80CA083E7234EB2420CD0B4
:100AA00020D9224EB24208D006F58036B24204D098
:100AB000A6F58016B2427FF474AF8A68E2B94FF0AF
:100AC000040A6EE7CB6803F10C0A6AE7CB6803F10E
:100AD000080A66E74FF0010B0BFA09F946EA090626
:100AE0000196A3E7A6F58016B242E6D006F5803659
:100AF000B2427FF456AFE0E7012A0CBF03614361C5
:100B00004FF0080A4DE770474FF0020B019E0BFAB9
:100B100009F946EA0906019688E700BF000401408A
:100B200000100140001401400000211000003110AD
:100B30000010024000080140000C014002B9090405
:100B400001617047002800F09780F8B590F83D30BB
:100B5000044603F0FF02002B00F087802423226864
:100B600084F83D30136823F00103136001F014FA98
:100B700062684B4B9A424BD84A4B98427AD9431EF3
:100B80005200B3FBF2F248492368A1FB00105968F8
:100B9000800C21F03F0101435960196A013021F0B6
:100BA0003F0108431862501CC0F30B00042838BFF3
:100BB0000420D96921F44F4121F0FF0100252026AE
:100BC0000843D8611968D4E9072021F0C001024325
:100BD0000A431A609968D4E9030221F4034121F021
:100BE000FF0102430A439A60D968D4E9052021F045
:100BF000FF0102430A43DA601A68284642F0010204
:100C00001A60256484F83D60256384F83E50F8BD81
:100C1000264B98422ED94FF49671234D2368A5FB9D
:100C20000065AD0C01FB05F15E68214F26F03F0623
:100C3000A7FB017135435D601D6A890925F03F05F9
:100C4000013129431962D969A56821F44F4101385E
:100C500021F0FF0195B902EB4202B0FBF2F0013046
:100C6000C0F30B00C0B90120A8E780F83C2004F0D5
:100C700053FC73E70120F8BD0120704702EB8202AC
:100C800002EB8202B0FBF2F00130C0F30B0000284F
:100C9000E9D040F4404091E740F400408EE700BFC7
:100CA000A08601007F841E0083DE1B43FF083D00F9
:100CB000D34D62102DE9F047044682B099460F46A5
:100CC00090460A9DFFF780FD94F83D30202B03D01D
:100CD000022002B0BDE8F087064605E0FFF774FD8C
:100CE000801B192800F2CB8023689A69D24312F046
:100CF000020AF3D094F83C20012AE9D001211A68B5
:100D000084F83C10D20702D41A680A431A60002102
:100D10004FF0210C10201A6822F400621A609B4ADE
:100D200084F83DC084F83E002164A4F82A90618DC7
:100D3000E262E26AC4F82480082A218570D0012A80
:100D40006ED012F5803F6BD0226B122A68D0681CDF
:100D500040F089805A69D107FCD52269B2F5804FED
:100D600040F0C08007F0FE071F616F1C04D0E0E078
:100D70005A69510500F1A0805A699007F8D5002200
:100D800001925A6901929A690192019A228D002A70
:100D900000F0DF80681C03D047E05A6952052AD46E
:100DA0005A691106F9D5676AB4F828C0384610F8B0
:100DB000012B0CF1FF311A61628D89B2013A92B2B6
:100DC00062855A696062500721850CD559B17A78DD
:100DD000ACF1020C1A61628D0237013A92B2A4F8AA
:100DE00028C0676262856F1C2ED15A695007CDD426
:100DF0005A695105F9D500226FF4806020215861AD
:100E0000226384F83D1084F83E20236C84F83C2053
:100E100043F004032364236C042B75D0012058E7AE
:100E20001A6842F480721A6091E75A691706BAD4B8
:100E30005A695705DFD4FFF7C7FC801B85426AD388
:100E4000002D68D02368A5E75A6952079ED45A69D5
:100E50005205D0D4FFF7B8FC801B85425BD3002D30
:100E600059D02368BFE75A69D2073FF576AFFFF73D
:100E7000ABFC801B854210D37DB1236867E720233C
:100E8000C4F830A084F83D3084F83EA0236C84F888
:100E90003CA043F0200323641AE7002220232263AE
:100EA00084F83D3084F83E20236C84F83C2043F0E5
:100EB0002003236401200CE7002220206FF48065CA
:100EC000196841F4007119605D61226384F83D0086
:100ED00084F83E20236C84F83C2043F00403236410
:100EE0000120F6E6FA1102F0060242F0F0021A6161
:100EF000691C03D03AE05A695005DDD45A691207DB
:100F0000F9D5FFB21F6130E722680120136843F46E
:100F100000731360DDE600222023226384F83D3055
:100F200084F83E20236C84F83C2043F020032364A3
:100F300071E75A6992073FF522AF5A695205BBD44F
:100F4000FFF742FC801B8542A7D3002DA5D0236864
:100F50000BE720251968104641F40071196084F8E8
:100F60003D5084F83C2084F83E20B2E65A691107CF
:100F7000C7D45A6950059FD4FFF726FC801B8542D1
:100F80008BD3002D89D02368B2E700BF0000FFFF9C
:100F90002DE9F04F054683B01F468A469346FFF77A
:100FA00013FC95F83D30202B03D0022003B0BDE8A0
:100FB000F08F064605E0FFF707FC801B192800F2BA
:100FC000AC802B689A69D24312F00204F3D095F8F2
:100FD0003C20012AE9D001211A6885F83C10D2078B
:100FE00040F19780242000214FF001094FF0A00824
:100FF0001A680AF0FE0A22F400621A60654A85F84F
:101000003D002964EA621A6842F480721A607C1C0E
:1010100064D15A69D007FCD5C3F810A0FFF7D4FB00
:101020002B6806465A69596995F83D0002F002029C
:10103000A02801F4806118D0BAB9B1B9002F3DD011
:1010400001E092B989B9FFF7BFFB801BB8422B685A
:1010500088BF85F83D805A69596995F83D0002F0CE
:101060000202A02801F48061EBD1202285F83D2006
:101070005A6992076FD46FF480611A6842F4007263
:101080001A60596105E0FFF79FFB801B192830D8D3
:101090002B689C69E44314F00204F4D009F10109BF
:1010A000D945B0D320220023012085F83D2085F8C2
:1010B0003C307BE7002AD8D10029D6D1FFF784FB4A
:1010C0002B6885F83D805A69596995F83D0002F012
:1010D0000202A02801F48061ECD1C6E75A69D10769
:1010E0009AD4FFF771FB801B874223D317B32B6879
:1010F0008DE7202301202C6385F83D3085F83E40A4
:101100002B6C85F83C4043F020032B6403B0BDE812
:10111000F08F1A680A431A6064E720232C6385F86D
:101120003D3085F83E402B6C85F83C4043F0200371
:101130002B643AE70022202301202A6385F83D3002
:1011400085F83E202B6C85F83C2043F020032B646F
:1011500003B0BDE8F08F00211A6842F400721A60F3
:1011600001915A6901929A690192019A05E0FFF78B
:101170002BFB801B1928BCD82B689B69DB4313F021
:101180000204F4D02023002085F83D3085F83C008F
:101190000CE700BF0000FFFFF0B587B0002874D057
:1011A00090F82932044603F0FF02002B68D0032395
:1011B000264684F82932206801F0AEFD56F810CB9F
:1011C0006D4637460FCF0FC53B68271D2B60604625
:1011D00097E80E0001F08EFD054630B1022301258F
:1011E00084F82932284607B0F0BD0146206801F096
:1011F0009DFDD4F804C0BCF1000F29D028464FF063
:10120000010E2A4604EB4013451C83F82800D886BB
:10121000E8B2604583F829E083F82B20C3E90E2269
:101220001A64EFD30023194604EB43125D1C03F14B
:101230000A0082F82831EBB24001634582F8291197
:1012400082F82B11C2F83811C2F83C112150EBD3AF
:101250000FCE6D46D4F800C00FC5336860462B60D2
:1012600097E80E0001F064FD05460028B6D1012381
:1012700084F82400206884F8293202F077F9B1E775
:1012800080F8282204F018FB91E70125284607B0D2
:10129000F0BD00BF90F82832012B10D0012110B50D
:1012A000044680F8281204F035FC206802F05CF94E
:1012B000206801F027FD002084F8280210BD0220DC
:1012C000704700BF2DE9F84F0446006802F050F95E
:1012D0000104226843D4104602F04AF9460500F1A1
:1012E0007181206802F044F910F4804F206807D023
:1012F000B0F8443023F480431B041B0CA0F84430A6
:1013000002F036F910F4005F206807D0B0F84430DE
:1013100023F400531B041B0CA0F8443002F028F9FE
:10132000C50400F13181206802F022F9000500F1C6
:101330000481206802F01CF9820500F1F180206828
:1013400002F016F9C30508D52268B2F8443023F438
:1013500080731B041B0CA2F84430BDE8F88FDFF843
:1013600014A4DFF814B4B2F844301F04B3D5B2F8B3
:10137000441089B211F00F0557D111F010011388F4
:1013800000F03E819BB213F4006540F07A811B04AB
:10139000E9D540F68F7311880B4043F0800313802A
:1013A000B2F8503094F8281103EBC10302EB430369
:1013B000B3F80C34C3F30903C4F844319BB1D4F837
:1013C0003C1181B11046B4F82E2102F0D7F8D4F8C0
:1013D0003C31D4F8442129461344C4F83C3120461A
:1013E00004F090FA2268B2F85030D4F838119BB269
:1013F00002F20C40002940F09881C15A21F4F841D2
:101400000904090CC152C15A6FEA41416FEA5141C6
:1014100089B2C1521188D64B0B4083F4405343F438
:10142000004343F0800313809DE732F82560B6B295
:10143000310426D4330696D532F8251004EB451333
:101440000AEA010141F4004122F82510B2F85010D7
:1014500093F82850D86B01EBC50102EB4101B1F8BC
:1014600004141D6CC1F3090146185964DE63002D94
:1014700040F0EF8093F82810204604F04BFA2268E1
:1014800071E740F68F7332F825106F010B4043F07F
:10149000800322F8253004EB070999F8343102F56E
:1014A0008060002B00F00F8199F8283132F823C0BA
:1014B00002EB83011CF4804FB2F850C04FEAC30323
:1014C000634400F01B81023330F81380C8F309082D
:1014D000B8F1000F40F05D810B880BEA030343F481
:1014E000004343F0C0030B802744D7F84421D7F8CA
:1014F0003C31D7F8400142444344C7F84421C7F87F
:101500003C31002800F0F780D7F8382197F82811EF
:10151000904580F01481204604F0F4F9226889E7B0
:1015200022682046B2F8443023F400731B041B0CDD
:10153000A2F8443004F0F6F901E72368B3F840203C
:10154000184642F00802A3F84020B3F8442022F4E1
:1015500000621204120CA3F84420B3F8402042F0B9
:101560000402A3F8402002F003F8C10408D5226861
:10157000B2F8443023F480531B041B0CA2F844300F
:10158000204604F0E5F9D4E622682046B2F840305F
:1015900023F004031B041B0CA2F84030B2F84030C7
:1015A00023F008031B041B0CA2F8403004F0E0F900
:1015B0002068B0F8443023F480531B041B0CA0F8BF
:1015C0004430B1E622682046B2F8443023F4806308
:1015D0001B041B0CA2F8443004F0A8F994F828323C
:1015E000012B3FF47EAE0025012384F8245084F8BB
:1015F00028322946206801F0B1FF84F8285270E6AD
:101600000AEA030343F400431380B2F8503094F81D
:101610002800E56B03EBC00302EB4302B2F804348D
:101620002046C3F309031D446364E56304F072F9C3
:1016300094F824301BB3236C2268002B7FF493AE04
:1016400094F8241041F08001A2F84C1084F8243062
:1016500089E64FF0000C012793F82830104603F07C
:10166000070251016318283183F82820C3E90F6568
:101670002144C3F844C083F8297001F0D1FD2268E9
:1016800071E6B2F8503094F82811104603EBC1030C
:1016900002EB4302B2F80C3404F50C71C3F30903F6
:1016A000B4F82E21C4F8443101F068FF40F68F737E
:1016B0002268204611880B4043F08003138004F019
:1016C0001BF922684FE6B2F8503099F8281106331A
:1016D00003EBC10330F81380C8F30908B8F1000F19
:1016E0003FF402AF10464346B9F82E21D9F83C1119
:1016F00001F044FFF8E697F828110CE7063330F8BC
:101700001380C8F30908B8F1000F3FF4E5AE434673
:101710001046B9F83221D9F83C1101F02FFF99F8A1
:101720002831216801EB8301D6E63E2926D84D08F1
:10173000CF0748BF0135AD02ADB2C5526AE64FF0E2
:10174000000C01F007014F01E21907F5947782F8C8
:101750002811C2F84001C2F83C31C2F844C182F8F5
:1017600029C1E119206801F05BFD226862E600BF33
:101770008FBFFFFF0F8FFFFF8F8FFFFF4D09CE063B
:10178000064908BF05F1FF3541EA8525ADB2C552CE
:1017900040E610464346B9F83021BCE70080FFFF21
:1017A00090F82822012A0DD010B50446012284F8B1
:1017B000241080F82822006801F0D0FE002084F870
:1017C000280210BD02207047F8B501F00705090690
:1017D0004FEA45141FD40027061904F5947186F8C2
:1017E000297101444C780D700A61CB7004B1CD8130
:1017F000022B04BF00230B7190F82832012B12D06A
:101800000123044680F82832006801F0ABFA00207A
:1018100084F82802F8BD0127061904F1280186F88A
:1018200029700144DEE70220F8BD00BF01F0070285
:10183000090610B54FEA421316D40024C11803F567
:10184000947381F82941C1180A7090F82832012B4D
:1018500015D00123044680F82832006801F00AFC04
:10186000002084F8280210BD0124C118283381F813
:101870002940C1180A7090F82832012BE9D10220C2
:1018800010BD00BF70B5002601F007014D014419DD
:1018900005F5947584F82811C4F83C214119C4F861
:1018A00040310068C4F8446184F8296101F0B8FC53
:1018B000304670BD01F0070100EB4111D1F8440141
:1018C000704700BFF8B50026012701F007014D0160
:1018D0004419283584F82810C4E90F2341190068F9
:1018E00084F82970666401F09BFC3046F8BD00BFA7
:1018F00038B5436801F007059D421BD80B061BD481
:1019000000244901431883F82941012301F5947209
:1019100081180D708B7090F828229A421BD00446D3
:1019200080F82832006801F0A3FDB5B1002084F8EA
:10193000280238BD012038BD01226B0103F12801C6
:10194000034483F82920012301440D708B7090F823
:1019500028229A42E3D1022038BD04F50C71206898
:1019600001F00AFEE2E700BF38B5436801F00F025C
:101970009A421ED801F0070209064FEA42131AD410
:101980000025C41884F82951002503F594710144F9
:101990000A708D7090F82832012B1AD0012304466A
:1019A00080F82832006801F085FD84F82852284626
:1019B00038BD012038BD0125C41884F82950002500
:1019C00003F1280101440A708D7090F82832012B30
:1019D000E4D1022038BD00BF11F0800F0DD001F01E
:1019E000070100EB4110283099B26AB101221B0CAB
:1019F0004381018102730020704700EB411000F524
:101A0000947099B2002AF1D1C1800273002070470E
:101A1000002800F055812DE9F041036882B0DD0710
:101A2000044635D5A8494A6802F00C02042A00F0A1
:101A300005814A6802F00C02082A00F0FB80636806
:101A4000B3F5803F10D0002B00F02081B3F5A02F1C
:101A500000F078819C4B1A6822F480321A601A6870
:101A600022F480221A6004E0974A136843F480331A
:101A70001360FEF7A9FE944D064605E0FEF7A4FEAE
:101A8000801B642800F2F5802B689A03F6D5236842
:101A90009F074DD41A0722D5A369002B00F0BA8006
:101AA00001228A4B884D1A60FEF78EFE064605E03D
:101AB000FEF78AFE801B022800F2DB806B6A9B0720
:101AC000F6D5834B834A1B68A2FB03235B0A019371
:101AD00000BF019B5A1E0192002BF9D123685D07BC
:101AE00069D5794BDA69D00000F1EC800125DA691B
:101AF00042F08052DA61DB6903F080530093009B6F
:101B0000754B1A68D10540F1A380E368012B37D0EB
:101B1000002B00F0E780052B6B4B1A6A00F01F8149
:101B200022F001021A621A6A22F004021A622CE000
:101B3000654A516811F00C0F61D0516801F00C0139
:101B4000082959D02369002B00F0EB800122634B58
:101B50005D4D1A60FEF738FE064605E0FEF734FEDE
:101B6000801B022800F285802B689807F6D52B6829
:101B7000626923F0F80343EAC2032B60236889E714
:101B8000514A136A43F001031362FEF71DFE4E4EE5
:101B9000804641F2883705E0FEF716FEA0EB08000C
:101BA000B84266D8336A9B07F6D525B1464AD36951
:101BB00023F08053D361E069D0B1434D6A6802F0ED
:101BC0000C02082A00F0D38002284FF00001444A9A
:101BD00000F0DE801160FEF7F7FD2C46054604E0BC
:101BE000FEF7F2FD401B022843D823689B01F7D47F
:101BF000002002B0BDE8F0815268D603A2D4324A78
:101C00001268950739D52269012A36D0012002B021
:101C1000BDE8F0812D4A2C4D1360FEF7D5FD064638
:101C200004E0FEF7D1FD801B022822D86B6A9F07D3
:101C3000F7D453E74A68D0037FF501AF224A126810
:101C400091037FF525AF6268002A7FF421AFDDE7BD
:101C50001A681E4642F480721A60FEF7B5FD074608
:101C60003368DA053FF551AFFEF7AEFDC01B6428BF
:101C7000F6D9032002B0BDE8F081134960690A6813
:101C800022F0F80242EAC0020A6003E703F180434F
:101C900003F504331A681D4622F480321A601A686C
:101CA00022F480221A60FEF78FFD064604E0FEF75C
:101CB0008BFD801B6428DCD82B689B03F7D4E6E6F9
:101CC0000120704700251BE70010024080044242BB
:101CD00034010020D34D62100070004000004242E9
:101CE0006000424203F1804303F504331A6A1E4642
:101CF00022F001021A621A6A41F2883822F00402C4
:101D00001A62FEF761FD074604E0FEF75DFDC01BA9
:101D10004045AED8336A9807F7D4002D3FF44BAF57
:101D200044E7344A344D1360FEF74EFD064604E0A6
:101D3000FEF74AFD801B02289BD82B689907F7D431
:101D40002368A7E603F18043A3F53C331A6842F405
:101D500080221A601A6842F480321A6089E642F0E2
:101D600004021A621A6A42F001021A620DE701289F
:101D70003FF44DAF6B68226A03F4803191427FF4E7
:101D800045AF606A03F47013181A18BF01203EE7CC
:101D90001160FEF719FD064605E0FEF715FD801BF4
:101DA00002283FF666AF2B689901F6D4226AB2F595
:101DB000803F05D16B68A16823F400330B436B604F
:101DC00001250D4B606A5968024321F474110B48D8
:101DD0000A435A6005601C46FEF7F6FC054605E01E
:101DE000FEF7F2FC401B02283FF643AF23689A013E
:101DF000F6D5FDE60000424200100240600042427B
:101E000078B15D4A136803F007038B420BD2136865
:101E100023F007030B431360136803F007038B429F
:101E200001D0012070472DE9F041036886B09D077D
:101E300014D55C0704D5514C626842F4E0626260DC
:101E40001A0704D54D4C626842F4605262604B4CF4
:101E50008568626822F0F0022A436260DB0704466C
:101E60000D4620D54268454B012A1B686FD0022AD7
:101E70007ED0980727D5414E41F28838736823F009
:101E8000030313437360FEF79FFC074604E0FEF76D
:101E90009BFCC01B404569D87368626803F00C0363
:101EA000B3EB820FF3D1344A136803F00703AB425C
:101EB0000DD9136823F007032B431360136803F055
:101EC0000703AB4203D0012006B0BDE8F0812368D0
:101ED000590706D52949E0684A6822F4E0620243BE
:101EE0004A601A0707D5254A2169536823F46053CD
:101EF00043EAC103536040F20122214B06ACADF826
:101F000004200FCB04E90F001C494A6802F00C03BF
:101F1000082B1AD1C2F38343234413F8100CD303C4
:101F200018D4184B03FB00F3144A1748526817499A
:101F3000C2F30312805C164AC34008681360FEF7C0
:101F400001FC002006B0BDE8F081124BECE79F03D6
:101F500091D4B8E74A680F4BC2F3404203FB00F349
:101F6000224412F8142CB3FBF2F3DDE70320ABE7B5
:101F70009E0180D4A7E700BF00200240001002406D
:101F8000B465000800093D002C8E00081C000020EC
:101F90003401002000127A00044B05495B68054AB1
:101FA000C3F30223CB5C1068D84070470010024096
:101FB0003C8E000834010020044B05495B68054A4B
:101FC000C3F3C223CB5C1068D840704700100240B6
:101FD0003C8E0008340100202DE9F04104460068E1
:101FE00082B0C5072AD53A4BDA69D1003DD5394BC5
:101FF00000251A68D20546D5354960680A6A12F488
:1020000040720FD000F4407393420BD0012700269A
:102010000B6A314A23F44070176016600862D807D3
:1020200045D460682A4A136A23F440730343136259
:102030001DB1D36923F08053D3612068830706D58F
:10204000234AA168536823F440430B43536010F0C4
:10205000100007D000201E4AE168536823F4800373
:102060000B43536002B0BDE8F081DA69012542F00C
:102070008052DA61DB6903F080530193019B154BB9
:102080001A68D205B8D41A681E4642F480721A60E3
:10209000FEF79AFB07463368DB05ADD4FEF794FBE9
:1020A000C01B6428F7D9032002B0BDE8F0810E46BA
:1020B000FEF78AFB41F288378046336A9A07B0D42C
:1020C000FEF782FBA0EB0800B842F6D9EBE700BFB1
:1020D000001002400070004040044242002836D008
:1020E00090F83D3070B503F0FF0204460BB30223B5
:1020F0002268204E84F83D30B2421368A569E0683A
:10210000616826D0B2F1804F18D0A6F59436B2425D
:1021100014D006F58066B24210D023F080032B4322
:102120001360D062916201230020536184F83D3036
:1021300070BD80F83C2003F021FAD8E7A66823F0B0
:1021400070033343266923F440733343E5E70120EA
:102150007047A66823F070033343266923F4407365
:10216000334323F080032B431360D0629162636991
:102170001363D8E7002C0140704700BF002836D019
:1021800090F83D3070B503F0FF0204460BB3022314
:102190002268204E84F83D30B2421368A569E06899
:1021A000616826D0B2F1804F18D0A6F59436B242BD
:1021B00014D006F58066B24210D023F080032B4382
:1021C0001360D062916201230020536184F83D3096
:1021D00070BD80F83C20FFF7CFFFD8E7A66823F05A
:1021E00070033343266923F440733343E5E701204A
:1021F0007047A66823F070033343266923F44073C5
:10220000334323F080032B431360D06291626369F0
:102210001363D8E7002C01400122036801F01F017D
:10222000186A02FA01F120EA01001862186A0A4AE3
:102230000143934219620AD09A6802F00702062A03
:1022400003D01A6842F001021A60002070475A6CED
:1022500042F400425A64EFE7002C014010B40446F7
:102260000120236801F01F011A6A00FA01F122EA35
:1022700001011962134A196A9342196213D041F29B
:102280001112196A114208D140F24442196A1142EE
:1022900003D11A6822F001021A600123002084F899
:1022A0003D3010BC704741F21112196A1142E6D15B
:1022B00040F24442196A1142E1D15A6C22F40042C0
:1022C0005A64DCE7002C0140704700BF002836D07C
:1022D00090F83D3070B503F0FF0204460BB30223C3
:1022E0002268204E84F83D30B2421368A569E06848
:1022F000616826D0B2F1804F18D0A6F59436B2426C
:1023000014D006F58066B24210D023F080032B4330
:102310001360D062916201230020536184F83D3044
:1023200070BD80F83C20FFF7CFFFD8E7A66823F008
:1023300070033343266923F440733343E5E70120F8
:102340007047A66823F070033343266923F4407373
:10235000334323F080032B431360D062916263699F
:102360001363D8E7002C014090F83C30012B00F0BB
:102370008A80F0B4D1E900670124022380F83C4050
:1023800080F83D30D1E90254036862B3042A59D081
:10239000082A1A6A79D022F480521A62D969D3F8CD
:1023A00020C021F440713203240341EA0721A4B282
:1023B00002F4005221F470412CF4005632430C43D5
:1023C000DC611A62DA6922F44062DA61DA6942EAAF
:1023D0000525DD610023F0BC012280F83C3080F847
:1023E0003D20184670471A6ADFF8DCC022F001026F
:1023F0001A62634599691A6A0DD0B3F1804F0AD009
:10240000ACF5943C634506D00CF5806C634502D076
:1024100041F0010102E021F003013943240122F0DF
:102420000A07E4B221F0F00106F00A023A43214320
:1024300099611A629A6922F00C029A619A691543AD
:102440009D61C7E71A6A240322F010021A62996993
:10245000D3F820C021F44071320141EA0721A4B22F
:1024600002F0A00221F470412CF0A0063243214377
:1024700099611A629A6922F440629A619A6942EA01
:1024800005259D61A6E70220704722F480721A623A
:10249000D969D3F820C021F0030132022401394365
:1024A000E4B202F4007221F0F0012CF40076324321
:1024B0002143D9611A62DA6922F00C02DA61DA6921
:1024C0001543DD6186E700BF002C014090F83C30E9
:1024D000012B00F0C580F0B40223012480F83D30C8
:1024E00080F83C400C2A36D8DFE802F03E3535351E
:1024F0006735353591353535070003688F681D6AB6
:102500000E6825F480551D621A6A6C4DD3F804C01C
:10251000DC6922F4005224F4E644AB4242EA07327A
:1025200044EA062404D14D692CF4804C4CEA851C05
:102530004D68C3F804C0DC611D641A62DC690D6972
:1025400044F40064DC61D96921F48061D961DA69FD
:1025500042EA0522DA610023F0BC012280F83C3017
:1025600080F83D201846704703688F681D6A0E6822
:1025700025F001051D621A6A504DD3F804C09C690C
:1025800022F0020224F07304AB4242EA070244EA5A
:10259000060476D04D68C3F804C09C615D631A627E
:1025A0009C690D6944F008049C61996921F004015B
:1025B00099619A692A439A61CDE703688F681D6A19
:1025C0000E6825F010051D621A6A3C4DD3F804C050
:1025D0009C6922F0200224F4E644AB4242EA07124E
:1025E00044EA06245BD04D68C3F804C09C619D6337
:1025F0001A629C690D6944F400649C61996921F434
:10260000806199619A6942EA05229A61A3E70368A9
:102610008F681D6A0E6825F480751D621A6A274D41
:10262000D3F804C0DC6922F4007224F07304AB42D6
:1026300042EA072244EA060414D04D68C3F804C0F5
:10264000DC61DD631A62DC690D6944F00804DC6159
:10265000D96921F00401D961DA692A43DA617AE79C
:1026600002207047CE6822F40062D1E905752CF48F
:10267000405C42EA06223D4322F480624CEA051C9B
:10268000DBE7CF6822F00802D1E905562CF4407C44
:102690003A43354322F0040245EA0C0C7AE7CE684F
:1026A00022F08002D1E905752CF4406C42EA061252
:1026B0003D4322F040024CEA850C94E7002C014097
:1026C00090F83C30012B5AD00222F0B40125036867
:1026D00080F83D209A680C6822F47F4222F077024D
:1026E000402C80F83C509A6074D04AD9602C2DD090
:1026F00056D9702C1AD0B4F5005F0ED1D1E9015231
:10270000CC6899682A4342EA042221F47F410A43B3
:102710009A609A6842F480429A600023F0BC0122D9
:1027200080F83C3080F83D2018467047D1E90152CE
:10273000CC6899682A4342EA042221F47F410A4383
:102740009A609A6842F077029A60E6E71C6A4D68E0
:1027500024F01004CE681C6299691A6A21F4704151
:1027600022F0A00242EA051241EA063199611A629A
:102770009A6822F0700242F067029A60CDE7022068
:102780007047102C04D03DD9202C01D0302CC4D15E
:102790009A6844F0070422F0700214439C60BCE77E
:1027A000502CBAD11D6A1E6A4C6826F00106CF680B
:1027B0001E629A6925F00A0122F0F00242EA07122D
:1027C00021439A6119629A6822F0700242F057021E
:1027D0009A60A2E71D6A1E6A4C6826F00106CF685F
:1027E0001E629A6925F00A0122F0F00242EA0712FD
:1027F00021439A6119629A6822F0700242F04702FE
:102800009A608AE7002CC3D087E700BF704700BFFB
:10281000704700BF704700BF704700BF704700BFE0
:10282000036810B51A690446910702D5DA68920761
:102830005FD41A69500702D5DA68510746D41A697D
:10284000120702D5DA6810072ED41A69D20602D50B
:10285000DA68D00618D41A69D10702D5DA68D20727
:102860005DD41A69100602D5DA6811065FD41A69B8
:10287000520602D5DA68500661D41A69910602D56B
:10288000DA68920643D410BD6FF010010822196176
:10289000DB69204613F4407F227764D0FFF7BAFF4C
:1028A000002223682277D6E76FF00801042219611D
:1028B000DB6920469907227752D1FFF7A9FF20460E
:1028C000FFF7AAFF002223682277BEE76FF004011A
:1028D000022219619B69204613F4407F22773CD184
:1028E000FFF796FF2046FFF797FF00222368227725
:1028F000A5E76FF00201012219619B6902779B072E
:1029000025D0FFF787FF00222368227791E76FF039
:1029100020022046BDE810401A6100F04DB86FF06B
:10292000010220461A61FFF771FF236899E76FF0F3
:10293000800220461A6100F041F8236897E76FF0A3
:10294000400220461A61FFF769FF236895E7FFF709
:102950005FFF2046FFF760FFD5E7FFF75BFFC4E7A7
:10296000FFF758FFAEE7FFF753FF2046FFF754FF8E
:1029700096E700BF90F83C20012A1AD00222F0B45A
:10298000034600250126046880F83D206068D1E9EF
:10299000002720F070011143A268284622F080022F
:1029A0003A436160A26083F83D6083F83C50F0BC1C
:1029B00070470220704700BF704700BF704700BFDC
:1029C00000285ED038B590F83930044603F0FF0295
:1029D000002B51D02422236884F83920DA68E0687B
:1029E00022F40052DA601969A26821F440510143CF
:1029F0001961D968D4E9045021F4B0512A4321F077
:102A00000C0102430A43DA605A69A0691F4922F4A3
:102A1000407202438B425A6135D0FFF7BDFA6268BB
:102A200000EB8000920000EB8000B0FBF2F064222B
:102A3000174D2368A5FB00C1490902FB11021201D1
:102A40003232A5FB0202090101EB521200252021BE
:102A50009A601A69284622F490421A615A6922F053
:102A60002A025A61DA6842F40052DA60E56384F8B7
:102A7000391084F83A1038BD80F8382002F0ECFDA7
:102A8000A8E701207047FFF797FAC8E70038014030
:102A90001F85EB5190F83A30202B20D109B302B3B7
:102AA00090F83830012B1AD030B400232225046866
:102AB000C285C36380F83A50E568828545F4807525
:102AC00080F838308162E5606269184642F00102A0
:102AD0006261E36843F02003E36030BC704702208A
:102AE00070470120704700BF704700BF10B5846871
:102AF0000169B4F5805F836A026820D05C1C52686B
:102B00008462C9B91A70C38D013B9BB2C3858BB96E
:102B100020240268D16821F02001D160D16821F41D
:102B20008071D160516921F00101516180F83A4012
:102B300002F0CCFB002010BD02F07F02E2E75268F9
:102B400029B9C2F3080223F8022B8362DBE7D2B271
:102B500023F8012B8362D6E7704700BF036870B586
:102B60001A6804461607DD6859694AD011F0010158
:102B700050D0D60705D5E80503D5E06B40F001003D
:102B8000E063560702F0020076D561B1E16B02F016
:102B9000080641F00201E163002872D11EB1E16B29
:102BA00041F00801E163E16B002932D0960601D5BE
:102BB000A80674D45D69E16B090702D415F04005DD
:102BC0007AD02021DA6822F49072DA605A6922F011
:102BD00001025A6184F83A105A6952065BD55A6963
:102BE000616B22F040025A61002954D03B4B0846E9
:102BF0004B63FDF75DFE60B1606BBDE87040436BF9
:102C00001847960609D5A90607D590F83A30222B21
:102C10004ED070BD15F4907FABD116060ED4510680
:102C2000F7D56A06F5D52021DA68204622F0400261
:102C3000DA6084F83910FFF757FF70BD2806EED52B
:102C400094F83920212AE4D1A168226AB1F5805F85
:102C500037D0511C216212785A60E28C013A92B24C
:102C6000E284002AD5D1DA6822F08002DA60DA68DC
:102C700042F04002DA6070BD40B1002993D002F00A
:102C80000806E16B41F00401E16387E710078AD58C
:102C9000002984D187E72046FFF75EFF70BD94F8D6
:102CA0003A20222A86D12046FFF720FF236881E7B9
:102CB000BDE87040FFF71ABF2046FFF74DFFE56300
:102CC00070BD11882069C1F30801596010B9023242
:102CD0002262C2E701322262BFE700BFE12C000896
:102CE000002208B5436ADA851846DA84FFF734FF14
:102CF00008BD00BF84B001A880E80E0004B0002029
:102D0000704700BF0246B0F84030002043F43F4314
:102D1000A2F84030704700BF44F2FF030246B0F80B
:102D2000401000200B40A2F8403070470020704750
:102D300084B070B4044601250020A4F84050A4F8E3
:102D40004000A4F84400A4F85000B4F8406004AD7A
:102D500046F43F46A4F8406085E80E0070BC04B01D
:102D6000704700BF70B40D78034630F82540BC4A68
:102D7000C8782240032800F24281DFE800F04E4686
:102D8000024A002048F28004224323F825200D78CF
:102D9000B44E33F825202C433240224323F825201B
:102DA0000A7B002A3DD1CC880A784D7864086400FB
:102DB00003EB0212002D00F0E880B3F850502A44D3
:102DC000A2F800440A7833F8225003EB82046D061F
:102DD0000BD533F82240264046F4004646F0C006A4
:102DE00023F822600C7803EB8404CB78012B00F0ED
:102DF000208122889C4B134083F0200343F400433E
:102E000043F08003238070BC704742F4806200204E
:102E1000B8E742F4C0620020B4E742F40072002038
:102E2000B0E70C7833F82420324042F4014242F0FB
:102E3000800223F824200A780C89B3F8505003EB61
:102E40000212640802F580626400ADB254530A783D
:102E50004C89B3F8505003EB0212640802F581620A
:102E60006400ADB254534A78002A42D10A7833F84C
:102E7000225003EB82046D040BD533F82240264028
:102E800046F4404646F0800623F822600C7803EBB7
:102E90008404228856060CD5228822F0F0021205FE
:102EA000120D42F4004242F0C00222800C7803EB83
:102EB000840448F2800622886C4D22F0F00212054C
:102EC000120D42F4004242F0C00222800C7833F826
:102ED00024202A4082F44052324323F824200978E7
:102EE000614A33F821402240324323F8212070BC4C
:102EF00070470A7833F8225003EB82046D040BD537
:102F000033F82240264046F4404646F0800623F837
:102F100022600C7803EB8404228852060CD52288A8
:102F200022F0F0021205120D42F4004242F0C002FB
:102F300022800C7803EB8404228822F0F002120530
:102F4000120D42F4404242F080022280CA780C788E
:102F5000012A61D033F82450434A2A4082F02002EB
:102F600042F4004242F0800223F82420097870BC29
:102F700033F8212022F0F0029204920C42F4004235
:102F800042F0800223F821207047B3F850600D69A9
:102F90003244A2F808440A78B3F8504003EB021216
:102FA00002F20C42A4B265B33E2D4DD86E08ED0777
:102FB00048BF0136B602B6B216530C7833F8245027
:102FC00003EB84026E040ED533F8242022F0F002C5
:102FD0001205120D42F4404242F0800223F82420F0
:102FE0000A7803EB82021188204B70BC0B4083F4FB
:102FF000405343F4004343F08003138070470120A3
:10300000C0E6155B25F4F8452D042D0C1553155B12
:1030100045F400451553D0E733F8242022F0C002D0
:103020001205120D42F4004242F0800223F82420DF
:103030009CE7238823F0C0031B051B0D43F40043CA
:1030400043F08003238052E76E09ED06084D08BF68
:1030500006F1FF3645EA8625ADB21553ADE700BF50
:103060008F89FFFF8F8FFFFFBF8FFFFF8FBFFFFF96
:103070000080FFFF30B40A780D7B00EB82034C78B0
:1030800015BB002C00F0998030F8224064060ED564
:1030900030F8223023F0F0031B051B0D43F40043EE
:1030A00043F0C00320F822300B7800EB83031A882A
:1030B000002030BC22F0C0021205120D42F4004282
:1030C00042F080021A807047002C41D130F8224033
:1030D00064040ED530F8223023F0F0031B051B0DDD
:1030E00043F4404343F0800320F822300B7800EB98
:1030F00083031A8855060CD51A8822F0F0021205AF
:10310000120D42F4004242F0C0021A800B7800EB2C
:10311000830348F280051A883F4C22F0F002120522
:10312000120D42F4004242F0C0021A800A7830F8D0
:10313000223023402B4320F822300A78374B30F8D6
:1031400022100B401D4320F82250002030BC704755
:1031500030F8224064040ED530F8223023F0F0031A
:103160001B051B0D43F4404343F0800320F822303D
:103170000B7800EB83031A8852063ED448F2800590
:103180001A88264C22F0F0021205120D42F4404239
:1031900042F080021A800A7830F8223023402B4314
:1031A00020F822300A781C4B30F822100B401D43C7
:1031B00020F82250002030BC704730F822406504CF
:1031C0000ED530F8223023F0F0031B051B0D43F41D
:1031D000404343F0800320F822300B7800EB830358
:1031E0001A88002030BC22F0F0029204920C42F4C3
:1031F000004242F080021A8070471A8822F0F002E2
:103200001205120D42F4004242F0C0021A800B78FF
:1032100000EB8303B2E700BF8FBFFFFFBF8FFFFF4D
:10322000F0B44C788B69012C0A695AD0934298BF4C
:1032300000260D7B88BF9E1A8E6188BF13460A78D0
:1032400015BBB0F8505000F20C4412012C44002B76
:1032500000F0A8803E2B00F2C9805D08DB0748BF64
:103260000135AD02ADB2A5520A7830F822107D4B7F
:10327000F0BC0B4083F4405343F4004343F080031D
:1032800020F8223000207047002CEED1B0F85050CA
:1032900000F2044412012C44002B40F0B380A55AE4
:1032A000714E25F4F8452D042D0CA552A55A45F470
:1032B0000045A5524C78002C40F0AF80B0F850305B
:1032C0000A7800F20C4412011C44A35A23F4F84378
:1032D0001B041B0CA352A35A33439BB2A3520A787C
:1032E000C3E7934286BF9C1A134600249AB20D7B13
:1032F000013256088C619BB24A6900F580676DB354
:103300000D7830F825402D016406B0F850C055D531
:1033100000F20C44644463534C8907EB44043EB10F
:1033200002EB460332F8025B934224F8045BF9D1C6
:103330000C784B7800EB8402002B45D130F8243018
:1033400023F0F0031B051B0D43F4004343F0C003BF
:1033500020F824300A7800EB820216E0CC8807EBD4
:1033600044043EB104EB860632F8025B24F8045BA9
:10337000A642F9D1B0F850500C7800F204422A4429
:103380002401A3520A7800EB82021188374B0020F7
:10339000F0BC0B4083F0300343F4004343F0800360
:1033A00013807047A35A23F4F8431B041B0CA35249
:1033B000A35A43F40043A3520A7856E700F20444A8
:1033C000644463530C89A8E7012BDED130F8243024
:1033D00023F0F0031B051B0D43F4404343F080032F
:1033E00020F824300A7800EB8202CEE75D09DF0680
:1033F0001D4B08BF05F1FF3543EA85239BB2A3525D
:103400000A7832E73E2B16D85D08DE0748BF013543
:10341000AD02ADB2A5524C78D4B1012C0A787FF43C
:1034200024AFB0F8505000F20C4412019BB22C446F
:10343000A3520A7819E75E09DD060B4D08BF06F1B5
:10344000FF3645EA8625ADB2A5524C78002CE4D172
:10345000B0F850400B7800F20C4222441B01D552C8
:103460000A7802E78FBFFFFF0080FFFFBF8FFFFFDB
:103470004B780A7830F822105BB90C4B0B4083F480
:10348000805343F4004343F0800320F822300020AF
:103490007047074B0B4083F0100343F4004343F0A5
:1034A000800320F822300020704700BF8FBFFFFF4D
:1034B000BF8FFFFF0B7B002B39D110B40B784C78FA
:1034C00000EB830214B330F8232052060BD530F8FA
:1034D000232022F0F0021205120D42F4004242F0C5
:1034E000C00220F82320CB78012B1DD00A78194B7D
:1034F00030F8221010BC0B4083F0200343F400434B
:1035000043F0800320F822300020704730F8234039
:1035100064040ED41188104B0B4083F4405343F4E1
:10352000004343F080031380002010BC704700204C
:10353000704730F8232022F0F0021205120D42F4F9
:10354000404242F0800220F823200A7800EB8202F9
:10355000E0E700BFBF8FFFFF8FBFFFFF11B98023E0
:10356000A0F84C30002070470020704700207047C2
:10357000B0F84400704700BF0020704700EB4202E3
:10358000580802F580621AD0F0B4174606468D1C22
:1035900037F8044B013EA4B24FEA142C05F8024C54
:1035A00005F801CC05F10205F2D1F0BC01EB4001B8
:1035B00002EB8002D80744BF13880B707047DB070B
:1035C00044BF13880B707047F8B500230126114AD9
:1035D000C0B21070104D114A287013800C46104D67
:1035E0001049114A2B700B8013701049104D114A6D
:1035F00011480B702B7016700370FDF7E5F80F4F34
:103600000F4B38603246294620461C60BDE8F84022
:10361000FFF740BAA8150020B5150020BA15002004
:10362000B4150020C2150020C0150020AC150020E4
:10363000B8150020B9150020BC150020A4150020E5
:10364000B0150020F8B51D4B01681B68C46B1A68E3
:10365000914200D0F8BD1A4E184601223146FFF7BC
:1036600019FA184D184A2B8812789A420AD8174A24
:1036700012789A4206D3164A37781188154E481C9C
:10368000775410800133042C2B80E3D1FDF79CF894
:103690000023114A114910600A780D4C012A2B8031
:1036A000238005D0022A06D001220D4B1A70F8BDE6
:1036B00002230B70F8BD01230B70F8BDB01500207C
:1036C000B8150020BA150020B5150020A815002057
:1036D000C2150020AC150020A4150020B91500204B
:1036E000B4150020012806BF014B18780020704750
:1036F000AC150020014B1868704700BFA4150020CE
:10370000D0F8BC3283B110B5D0F8B84294F80002BA
:10371000FF2807D09B6894F8012221469847FF2391
:1037200084F80032002010BD00207047432303803E
:10373000004870475800002043230380004870472A
:103740009C0000204323038000487047EC000020C9
:103750000A23038000487047E000002038B5044683
:10376000D0F8B85202F0CCF9D4F8B832C5F80C024F
:103770004BB1D4F8BC3205F50371DB68D5F804020F
:103780009847002038BD022038BD00BFF8B5D0F8FA
:10379000B862D6B101EB810300EB8303DF694FB15F
:1037A000D0F8C02202EB4115AA6BB7FBF2F402FB82
:1037B00014741CB10020C6F81402F8BDDC61224666
:1037C000234602F081F92046F8BD0220F8BD00BF73
:1037D0002DE9F04100270B7882B013F060040D460C
:1037E0000646D0F8B8828DF80570ADF806700FD097
:1037F000202C17D1CC8891F801C064BBD0F8BC3222
:10380000224660469B689847204602B0BDE8F0819A
:103810004F780A2F14D00B2F0CD01FB990F89C3280
:10382000032B28D03046294600F084FC022002B049
:10383000BDE8F08190F89C32032BF3D12046F6E7E7
:1038400090F89C32032BEDD101220DF1050100F01F
:10385000A3FC2046EBE71B0614D5D0F8BC32224669
:1038600060469B6841469847EA884146304600F0EA
:1038700093FC3846DBE702220DF1060100F08CFCD8
:103880003846D4E788F800C288F80142224641460B
:1038900000F098FC3846CAE738B504460025812177
:1038A00002F0CAF80121E562204602F0C5F8C4F82A
:1038B0006C512046822102F0BFF8D4F8B83225645A
:1038C0004BB1D4F8BC325B689847D4F8B80202F028
:1038D0001FF9C4F8B852002038BD00BF037C2DE9A1
:1038E000F04104460125BBBB4FF400730222812145
:1038F00002F092F8E56229464FF400730222204656
:1039000002F08AF8C4F86C510127082303228221AF
:10391000204602F081F827644FF4077002F0F4F8B3
:103920000546C4F8B80268B30026D4F8BC321B6858
:10393000984794F81080D5F80422C5F814623946E7
:10394000C5F818622046B8F1000F14D0402302F0E9
:10395000C9F83046BDE8F08140230222812102F0FF
:103960005BF8E562294640230222204602F054F823
:10397000C4F86C51C8E74FF4007302F0B3F8404646
:10398000BDE8F0813846E5E719B1C0F8BC12002067
:1039900070470220704700BFD0F8B8320020C3F84B
:1039A0000812C3F810227047D0F8B8320020C3F8CC
:1039B00004127047D0F8B8228AB110B5047CD2F84E
:1039C00004222CB14023012102F08CF8002010BD0C
:1039D0004FF40073012102F085F8204610BD02204B
:1039E000704700BF88B108B5D0F8B43213B10023D6
:1039F000C0F8B43209B1C0F8B0120123027080F8E7
:103A00009C3201F0B9FF002008BD0220704700BFC2
:103A100019B1C0F8B412002070470220704700BFEF
:103A200008B501F0EBFF002008BD00BF08B5D0F8D5
:103A3000B4321BB11B68984700B908BD022008BD0D
:103A400008B5D0F8B4325B689847002008BD00BFC5
:103A500038B5044600F52A75284600F057FB0120CA
:103A600094F8A812B4F8AE2201F01F038342C4F800
:103A70009402C4F8982215D00ED3022B06D001F080
:103A80008001204601F0E6FF002038BD294620468F
:103A900000F0A6FA002038BD2946204600F0F6F8CE
:103AA000002038BD2946204600F06EFA002038BDBF
:103AB00070B5054641B9D0F89432032B0FD0052BD1
:103AC0000C462ED0002070BDD0F8B4329B69C3B133
:103AD00090F89C22032A14D19847002070BD164606
:103AE000D0F86031D0F8642193420CD99B1A9A42E5
:103AF000C0F860318CBF9AB292B2314600F072FBCE
:103B0000E0E7022070BDD0F8B4321B6923B190F811
:103B10009C22032A00D19847284600F06BFB002026
:103B200070BDC5F8941201F095FF204670BD00BF2E
:103B300070B5044681B91346D0F89422022A19D0F0
:103B400032F0040302D1802101F084FF94F8A03206
:103B50000020012B0BD070BDD0F8B4325B6963B389
:103B600090F89C22032A28D19847002070BD84F841
:103B7000A00270BDD0E90862964220D8C369B3FBA9
:103B8000F2F502FB15350DB99A4226D9D4F8B432B4
:103B9000DB682BB194F89C22032A01D12046984778
:103BA0008021204601F056FF204600F02FFB94F8BC
:103BB000A0320020012BCED1D9E7022070BDB21A6D
:103BC0000D460262194692B200F0F4FA2B462A46DC
:103BD0002946204601F086FFB8E7D0F898229342A4
:103BE000D4D22A4600F0E6FAC4F89852EEE700BFB5
:103BF00070B500224026044601251146334601F0E7
:103C00000BFF33468021C4F85851C4F86461204644
:103C1000002201F001FF0021D4F8B832A5616662EC
:103C200084F89C52C4F894126160C4F8A41223B1C1
:103C3000D4F8B43220465B689847002070BD00BFBE
:103C400001740020704700BF0346042290F89C12C4
:103C5000002083F89D1283F89C22704790F89C32D4
:103C6000042B04BF90F89D3280F89C3200207047EE
:103C700090F89C22032A01D00020704708B5D0F8A4
:103C8000B432DB6903B19847002008BD30B50B782A
:103C900083B003F06003202B0D46044628D0402B50
:103CA00026D053B18021204601F0D4FE20460021C9
:103CB00001F0D0FE002003B030BD4B78092BF1D8C5
:103CC00001A252F823F000BF453D0008713D0008F5
:103CD000A53C00088D3D0008A53C0008993D000862
:103CE000D73D0008A53C00080D3E0008033D000834
:103CF000D4F8B43229469B6820469847002003B088
:103D000030BD89789F4D01292970CBD890F89C321D
:103D1000022B00F00D81032B40F0FE80002900F003
:103D200027814168012909D0C9B2FFF789FE2978A6
:103D300020466160FFF77AFE0228B3D0204600F0EB
:103D400059FAB7E790F89C320322013B022BA9D81D
:103D5000CB88022BA6D10121D0F8A432C16003B1D7
:103D6000C260022204F10C01204600F015FAA1E71E
:103D700090F89C32013B022B94D84B88012B99D1AF
:103D80000023C0F8A43200F035FA93E74B88012BEA
:103D900090D1C0F8A432D1E78B88002B82D1CB8898
:103DA000002B7FF47FAF4D887F2D3FF67BAF90F8DF
:103DB0009C32032B3FF476AFE9B280F89E1201F0FB
:103DC00075FE204600F016FA002D00F0CD8002238B
:103DD00084F89C326EE700234A88ADF80630130A57
:103DE000013B062B3FF65EAF01A151F823F000BF67
:103DF000A53E00088D3E0008B53E0008A53C000821
:103E0000A53C0008773E0008333E0008CA88012A16
:103E10007FF448AF90F89C32002B3FF443AF022B65
:103E200040F29480032B7FF43DAF011D00F0B4F904
:103E300040E7037C002B7FF435AFD0F8B4320DF1AE
:103E400006001B6B984707234370BDF80630EA88CD
:103E50006BB1002A3FF472AF934228BF134601466C
:103E60001A462046ADF8063000F096F9EA88002A96
:103E70007FF420AF62E7037C002B7FF413AFD0F810
:103E8000B4320DF106005B6B9847DEE7027CD0F898
:103E9000B432002A61D19B6A0DF1060098470223D3
:103EA0004370D2E7D0F8B0320DF106011B68007CF8
:103EB0009847CAE7D2B2052A3FF6F4AEDFE802F02F
:103EC00026201A140E03D0F8B0329B69002B3FF461
:103ED000E9AE0DF10601207C9847B6E7D0F8B03284
:103EE0005B69002BF5D1DDE6D0F8B0321B69002B01
:103EF000EFD1D7E6D0F8B032DB68002BE9D1D1E6BC
:103F0000D0F8B0329B68002BE3D1CBE6D0F8B032CA
:103F10005B68002BDDD1C5E6802101F09BFD00210F
:103F2000204601F097FD29782046FFF789FDC1E67C
:103F300000293FF403AF01210323416080F89C3244
:103F4000FFF774FD02287FF4F9AEABE600230146CB
:103F500041F8083F00F020F9ACE6DB6A0DF10600FD
:103F600098470223437070E7012384F89C32A1E64E
:103F70000223416080F89C32FFF762FD204600F08A
:103F800039F997E62006002038B50B780D4603F086
:103F90006003202B04460CD0402B0AD04BB180216B
:103FA000204601F057FD2046002101F053FD00207E
:103FB00038BD94F89C32013B022BF0D82B79012BB1
:103FC000EDD8D4F8B43229469B6820469847EB8850
:103FD000002BECD10028EAD1204600F00BF9E6E7EF
:103FE00070B50B78044603F06003202B0CD0402BF7
:103FF0000AD083B18021204601F02CFD204600210B
:1040000001F028FD002070BDD4F8B43220469B6832
:104010009847002070BD4B788A88012BD5B23ED0DE
:1040200014D3032BE6D190F89C32022B46D0032BFD
:10403000E0D14B8833B96A0604D0CB8813B929463E
:1040400001F008FD204600F0D5F8DBE790F89C323F
:10405000022B3DD0032BCDD105F00F0303EB8303DF
:10406000120600EB830342D4D3F85831002BC1D0A1
:1040700005F07F0303EB830600EB860606F5AA76C0
:1040800033B12946204601F001FD00283BD0012331
:10409000336031462046022200F07EF8B2E790F805
:1040A0009C32022B0AD0032BA4D14B88002BA9D120
:1040B0006E06C7D0294601F0DBFCC3E76B0699D03A
:1040C000294601F0C7FC2046802101F0C3FC99E796
:1040D00068068FD1002311064CBF04F1140104F5CA
:1040E000AA7120460B60022200F056F88AE79B690D
:1040F000002B3FF47FAF05F07F035E1C06EB8606C6
:1041000000EB8606BCE73060C3E700BF0B780370A6
:104110004B784370CA788B7803EB022343804A794B
:104120000B7903EB02238380CA798B7903EB02239B
:10413000C380704710B50446802101F08BFC2046F7
:10414000BDE81040002101F085BC00BF00B303783A
:1041500030B4F3B10446002314F8015F0133DBB23D
:10416000002DF9D15B000233032413800B704C70D7
:1041700004785CB1022300255A1CD2B2CC548D5471
:1041800010F8014F0233DBB2002CF5D130BC704780
:1041900070470223E8E700BF38B5134602250A46F8
:1041A000C0E90733C0F89452002101F08DFC0020D3
:1041B00038BD00BF08B513460A46002101F084FC53
:1041C000002008BD38B5134603250A46C0F85C3107
:1041D000C0F86031C0F89452002101F083FC002047
:1041E00038BD00BF08B513460A46002101F07AFC2D
:1041F000002008BD08B504220023C0F89422194607
:104200001A4601F061FC002008BD00BF08B5052278
:104210000023C0F8942219461A4601F063FC0020DE
:1042200008BD00BF08B500F025FA002008BD00BF9A
:1042300030B5B0F908400246842C08BF002485B090
:1042400018BF033403AD0B4640681168128ACDE9EC
:10425000004500F0D9F8012814BF0020039805B0EC
:1042600030BD00BF08B5002808BF012000F030FCB9
:10427000002008BD4FF0FF31002200F108038160EB
:1042800002604360C0E90333704700BF002303614D
:10429000704700BF436810B49C6802688C609C68DB
:1042A00001324B606160996010BC08610260704728
:1042B00030B40D686B1C11D000F1080200E01A4602
:1042C00053681C68AC42FAD904684B6001349960A9
:1042D0008A6051600861046030BC704702695368AD
:1042E000F2E700BF036910B4D0E901215C68916076
:1042F000816884424A6008BF596000211A680161E0
:10430000013A1A60186810BC704700BF80B54FF0C2
:10431000805A154D154F164EDFF85880DFF858902B
:1043200014E000F09FFCFB68DC68201DFFF7DAFF5B
:104330003368013B33602B68013B2B6000F0B4FC19
:10434000206B00F033FE204600F030FE2B68002B7F
:10435000E7D1D8F80030012BF8D9C9F800A0BFF395
:104360004F8FBFF36F8FF1E7C006002034070020A6
:10437000BC0600203006002004ED00E0F8B51B4B21
:104380001B4E1C6833680546181D0F46FFF7AAFF31
:1043900040B9012233681749D86A0B68824023EA82
:1043A00002030B606B1C17D0336864195C600BD27E
:1043B000114B186831680431FFF77AFF0F4B1A6808
:1043C000A24288BF1C60F8BD0D4B18683168BDE87B
:1043D000F8400431FFF76CBF002FE5D03168094881
:1043E0000431BDE8F840FFF755BF00BF4807002083
:1043F00024060020D0060020280600200007002008
:104400002C060020200700202DE9F84F4FEA820AF1
:10441000804650460D4699460B9F00F033FD00281C
:1044200000F008810646542000F02CFD04460028C8
:1044300000F0D38006632B78AAF1040A80F83430A8
:104440002B78564426F0070A002B4DD06B7880F865
:1044500035306B78002B47D0AB7880F83630AB78AE
:10446000002B41D0EB7880F83730EB78002B3BD035
:104470002B7980F838302B79002B35D06B7980F888
:1044800039306B79002B2FD0AB7980F83A30AB798B
:1044900053B3EB7980F83B30EB792BB32B7A80F870
:1044A0003C302B7A03B36B7A80F83D306B7ADBB10A
:1044B000AB7A80F83E30AB7AB3B1EB7A80F83F301C
:1044C000EB7A8BB12B7B80F840302B7B63B16B7B1D
:1044D00080F841306B7B3BB1AB7B80F84230AB7BEB
:1044E00013B1EB7B80F843300A9D4FF0000B062D93
:1044F00028BF0625261DE5626564304684F843B072
:10450000C4F848B0FFF7C2FEC5F1070504F1180072
:10451000FFF7BCFEC4F84CB0A561246184F850B02C
:1045200064624A464146504600F074FB206007B181
:104530003C6000F097FB414A414F13680133136020
:104540003B68002B3FD0DFF81881E36AD8F80020E1
:1045500072B3DFF810910125DFF80CE1DFF80CC130
:1045600005FA03F203EB8303314609EB8300DEF81F
:104570000060DCF8003032432B44CCF80030CEF839
:104580000020FFF787FE00F08FFBD8F80030BBB1AA
:104590003A68E36AD26A9A4212D24FF08052294BAB
:1045A0001A60BFF34F8FBFF36F8F2846BDE8F88FB7
:1045B0003A68DFF8B090D26A9A4298BF3C60CAE786
:1045C0002846BDE8F88F3C601368012B0CD0E36AE5
:1045D000DFF89090DFF88880BDE7304600F0E6FC19
:1045E0004FF0FF30BDE8F88FDFF878904D4609F1C5
:1045F0008C0828461435FFF73DFE4545F9D1DFF814
:104600007080114D4046FFF735FE2846FFF732FE19
:104610000E48FFF72FFE0E48FFF72CFE0D48FFF760
:1046200029FE0D4B0D4AC3F80080E36A1560DFF8E0
:10463000308090E74FF0FF30B8E700BFBC060020A5
:104640002406002004ED00E0E80600200807002012
:104650003407002020070020280600202C06002018
:104660001C07002030060020D0060020CC060020C9
:10467000D40600202DE9F8434FF4007000F002FC4E
:10468000002800F093800646542000F0FBFB04460F
:10469000002800F0888000255B4B071D43630663FC
:1046A00080F8385080F84350C562C0E9115538464B
:1046B000FFF7ECFD04F11800FFF7E8FD072306F50E
:1046C000FE7626F007062A46E564A3614F49304688
:1046D000246184F85050646200F09CFA4C4B2060D6
:1046E0001C6000F0BFFA4B4BDFF858811A680132AA
:1046F0001A60D8F80020002A4CD0474EE06A336890
:10470000002B3ED0454D0123DFF83CE1DFF83CC1F2
:10471000834000EB8000DCF8002005EB8000DEF831
:10472000005001322B433946CEF80030CCF800203F
:10473000FFF7B0FD00F0B8FA33686BB1D8F800208D
:10474000E36AD26A9A4207D24FF08052344B1A6021
:10475000BFF34F8FBFF36F8F4FF0500383F3118878
:10476000BFF36F8FBFF34F8F4FF0FF340121002253
:104770002C4B2D48046031601A60BDE8F84300F00E
:10478000FDBAD8F80030254DDB6A834298BFC8F8DF
:104790000040B8E7C8F800401B68012B0FD0E06A62
:1047A0001E4D1D4EAFE7304600F000FC4FF05003A9
:1047B00083F31188BFF36F8FBFF34F8FFEE7174D61
:1047C0002E4605F18C0930461436FFF753FDB145EE
:1047D000F9D1DFF87C90154E4846FFF74BFD304687
:1047E000FFF748FD1248FFF745FD1248FFF742FD6D
:1047F0001148FFF73FFD114A114BC2F80090E06AE3
:104800001E60054E7FE700BF49444C450D4300083C
:10481000FC060020BC0600201C07002030060020FB
:1048200004ED00E04807002000070020E806002013
:104830000807002034070020200700202806002059
:104840002C06002024060020D0060020CC060020E4
:10485000D4060020024A136801331360704700BF7A
:10486000C80600202DE9F84F494B1B68CBB9494BCE
:104870001E6801361E600EB3DFF838B1DBF8002089
:104880000025B24228D9444FDFF82C81D8F80030F7
:10489000DB6A03EB83039B00FB58022B28BF012537
:1048A00004E000253D4A1368013313603C4B1B684C
:1048B000002B0CBF28460120BDE8F88F394C236837
:1048C0001B68002B47D04FF0500383F31188BFF3D0
:1048D0006F8FBFF34F8FFEE7324C2F4FDFF8D8803A
:1048E0002DE02268D268D2F80C90D9F8041009F1B2
:1048F000040A8E422CD35046FFF7F4FCD9F8281056
:1049000009F1180009B1FFF7EDFC0121264AD9F899
:104910002C00136801FA00FC00EB8000514607EB05
:1049200080004CEA030CC2F800C0FFF7B3FCD8F8D3
:104930000000D9F82C10C26A914228BF01252268D4
:104940001268002ACDD14FF0FF32CBF800209DE74E
:10495000CBF800109AE7154B21681868144A2060BC
:10496000196013680133136023681B6833B94FF073
:10497000FF32DFF840B0CBF800207FE72268DFF895
:1049800034B0D268D2685268CBF8002076E700BF16
:10499000C80600204807002030060020C40600207A
:1049A0004C07002028060020D00600202C060020FE
:1049B0000407002000070020240600202DE9F84FFE
:1049C000384C236843B94FF0500383F31188BFF389
:1049D0006F8FBFF34F8FFEE700F044F92368013B70
:1049E000236024687CBB304B1B6863B32F4DDFF81A
:1049F000D4A02F4EDFF8D090DFF8D0B0DAF8003036
:104A00003BB30127DAF80C30DC6804F1040804F148
:104A10001800FFF767FC4046FFF764FCE06A326865
:104A200007FA00F300EB80001343414609EB8000D6
:104A30003360FFF72FFCDBF80030E26ADB6A9A4252
:104A4000DCD32F60DAE7002400F02EF92046BDE821
:104A5000F88F3CB1174B1A681268DAB94FF0FF3281
:104A6000154B1A60154E34683CB10127FFF7FAFE6A
:104A700000B12F60013CF9D134602B68002BE2D0EB
:104A80004FF080520E4B1A60BFF34F8FBFF36F8F02
:104A90000124D9E71A68084BD268D26852681A60B4
:104AA000E0E700BFC8060020BC0600204C0700203D
:104AB000D00600202806002000070020C4060020A1
:104AC00004ED00E008070020300600202406002046
:104AD00008B598B10E4B196841B14FF0500383F3FC
:104AE0001188BFF36F8FBFF34F8FFEE71A68013253
:104AF0001A60FFF743FCFFF761FF38B94FF08052AF
:104B0000044B1A60BFF34F8FBFF36F8F08BD00BF18
:104B1000C806002004ED00E0194B1B68E3B91949F1
:104B2000194A10B40B601368B3FA83F3DBB2C3F114
:104B30001F03164803EB830292008158841879B151
:104B400061680832496802449142616011D0CA68C4
:104B50000F4B10BC1A60704701220A4B1A60704755
:104B60004FF0500383F31188BFF36F8FBFF34F8F64
:104B7000FEE7142202FB030349685960E7E700BF20
:104B8000C80600204C070020D00600203006002078
:104B900024060020054B1B6833B1054B1B68002B16
:104BA0000CBF022000207047012070471C07002026
:104BB000C806002000220E4B82B01B680192013310
:104BC00008D04FF0500383F31188BFF36F8FBFF30A
:104BD0004F8FFEE74FF0500383F31188BFF36F8FC1
:104BE000BFF34F8F019B002BFCD002B0704700BF7A
:104BF0003001002006480068006880F3088862B62B
:104C000061B6BFF34F8FBFF36F8F00DF00BF0000AF
:104C100008ED00E010B44FF08074064B21F0010164
:104C200040F8202C40E9021440F80C3C10BC4038FD
:104C3000704700BFB54B00080000000000000000F6
:104C4000074B19680868B0E8F00F80F30988BFF3D4
:104C50006F8F4FF0000080F311884EF00D0E7047FB
:104C6000240600204FF0500383F31188BFF36F8FA9
:104C7000BFF34F8F0A4A13680133012B136000D032
:104C80007047084B1B6813F0FF0FF9D04FF050032B
:104C900083F31188BFF36F8FBFF34F8FFEE700BF21
:104CA0003001002004ED00E0084A136843B94FF0DA
:104CB000500383F31188BFF36F8FBFF34F8FFEE76D
:104CC000013B13600BB983F311887047300100205A
:104CD000EFF30980BFF36F8F0D4B1A6820E9F00FD7
:104CE00010602DE908404FF0500080F31188FFF765
:104CF00013FF4FF0000080F31188BDE808401968E9
:104D00000868B0E8F00F80F30988BFF36F8F704731
:104D10002406002008B54FF0500383F31188BFF339
:104D20006F8FBFF34F8FFFF79DFD18B14FF080528B
:104D3000024B1A60002383F3118808BD04ED00E0E4
:104D40000023072110B4084A084C09481360236067
:104D50000368084C0848A4FB03439B09013B03601C
:104D600010BC1160704700BF10E000E018E000E0E8
:104D700034010020D34D621014E000E030B5FF256F
:104D80000724274B83B01A782649D2B201921D70AE
:104D90001B782548DBB28DF803309DF803309DF871
:104DA000032003F050030B701106046010D5062396
:104DB00000E00B469DF80320591E5200D2B28DF838
:104DC00003209DF803201206F3D4032B036008D0C0
:104DD0004FF0500383F31188BFF36F8FBFF34F8FF2
:104DE000FEE7002401990E4D1B02104AC9B203F4DC
:104DF000E06303602970136843F470031360136861
:104E000043F070431360FFF79BFF094B1C60FFF7F3
:104E1000F1FEFFF781FEFFF7CDFE204603B030BD67
:104E200000E400E0500700205407002020ED00E0DF
:104E30003001002030B4114B1A68824201D213466F
:104E4000FAE75C681919884203D141681846214481
:104E50005960446801198A4209D1094909688A429E
:104E600005D0D2E900512144C0E9005100E00260C0
:104E7000984218BF186030BC704700BF681300200C
:104E8000580700202DE9F041414F0446FFF7E2FCAE
:104E90003A68002A5AD03F4B1E68344250D1002C49
:104EA0004ED004F1080358071CBF23F00703083352
:104EB000002B45D0DFF8F080D8F800509D423FD35A
:104EC0003548046806E0D4F800C0BCF1000F04D0F7
:104ED0002046644661689942F5D3944230D0CA1A9C
:104EE0002768102A076010D9E018410708D04FF052
:104EF000500383F31188BFF36F8FBFF34F8FFEE72B
:104F000042606360FFF796FF61680023234A6D1AD1
:104F1000106831438542C4E9003104F1080438BF08
:104F20001560C8F80050FFF749FD63070BD04FF03C
:104F3000500383F31188BFF36F8FBFF34F8FFEE7EA
:104F4000FFF73CFD00242046BDE8F081144B002013
:104F50005D071CBF073323F0070319464FF00045D8
:104F6000104ADFF834C022F00702D31ACCF804004C
:104F7000CCF800103A60C2E90000084FC1E90023F4
:104F8000094804492E463B6003600D6085E700BF79
:104F9000580700205C1300206813002064130020D1
:104FA0005C0700205413002060130020D0B1194A80
:104FB00050F8043C1268134208D14FF0500383F3B9
:104FC0001188BFF36F8FBFF34F8FFEE750F8081CB7
:104FD00049B14FF0500383F31188BFF36F8FBFF3D4
:104FE0004F8FFEE7704710B5044623EA020340F8EE
:104FF000043CFFF72FFC084A54F8043C1168A4F164
:1050000008000B441360FFF715FFBDE81040FFF7E1
:10501000D5BC00BF5C1300206013002070B54FF4B6
:1050200080330024012502264FF4801294B00AA890
:105030000B93129313920C94059401940D94CDE963
:105040000F44CDE90644CDE90844CDE90244049477
:105050000A950E951196FCF7DBFC0F224FF4806346
:10506000294605A805920893CDE906640994FCF742
:10507000C7FE10224FF4800301A801920493FCF7AD
:10508000ABFF14B070BD00BF00242DE9804893B081
:10509000FBF77CFBFFF7C2FFCDE90B44CDE90D44E4
:1050A0007B4B4FF400599A690126022742F0100207
:1050B0009A619969224601F010010191019998695C
:1050C000494640F0200098619D69724805F020052E
:1050D0000295029D9D69DFF8E4B145F004059D61EC
:1050E0009D694FF0800A05F004050395039D9D69B5
:1050F0004FF4805845F008059D619B69664D03F0AB
:1051000008030493049BFBF719FD0BA96148CDE943
:105110000B960D940E97FBF717FC4FF480435F49F5
:105120005F4A5846CBE90012CBF81030CBE9024475
:10513000CBE90544CBE90744FBF704FD3022FF230C
:105140004FF080412846C5E90012EB60C5F818A071
:10515000AC602C6107940594CDE90B44CDE90D4476
:10516000CDE90F441194CDE908440A940694FCF764
:10517000B5FF07A92846CDF81C80FDF7A1FA2846FF
:10518000FCF7FCFF05A92846CDE90544FDF7F2FB35
:10519000602322460BA928460B93CDE90CA40F945B
:1051A000FDF794F9284600F02FFA4FF4E1310C2274
:1051B0003C4BDFF80CC11846C3E900C15A61C3E992
:1051C00002441C61C3E90644FDF7FAFB0423DFF83F
:1051D000F4A03549354A5046CAE90012CAE90249E5
:1051E000CAF81430CAF81040CAE90644FDF7E8FBD3
:1051F00041F288334BF68032DFF8CC902C49484698
:10520000C9F80C30C9E90012CDE90744CDE90944D9
:10521000CDE90544CDE90B44CDE90D44C9F808407A
:10522000C9F81040C9F81840FCF758FF07A94846CC
:10523000CDF81C80FDF744FA4846FDF747F805A96C
:105240004846CDE90544FDF795FB22460BA94846A3
:10525000CDE90B76CDE90D44FDF786F83046514691
:10526000FEF7B2F9134E21462846FCF7D5FF0BADE9
:105270005846FAF797FF0FCE0FC5336821460BA8A3
:105280002B60FEF7D5FF0C4B1860FEF7CBFFFEE757
:1052900000100240001001409C1600200054004005
:1052A000801A06005C1600200044004090D00300E5
:1052B00000040040C4650008C4150020C815002083
:1052C00000380140DC1600201C160020FEF7BAB999
:1052D00084B030B589B00CAC84E80F00BDF87440E0
:1052E0001C990CA8BDF87850FCF7B8FF0CA80F94D7
:1052F000FCF744FF602400231C9A01A90CA8039327
:105300000593CDE90145FDF7E1F81C990CA8FCF7E0
:1053100083FF09B0BDE8304004B0704780B5A4B049
:1053200000F078FA5A4B24AF4FF47A7047F8443DB6
:10533000CDE91133FEF796FF0120FEF7D3F96C4655
:105340004FF0FF0E4FF0000C524E80B20E9006F15F
:1053500010050FCDCDE90CCE0FC40FCD0FC495E8CD
:105360000F0084E80F0096E80F00FFF7B1FFDFF8A9
:1053700048A1494EDFF84491DFF8448141E0FBF752
:10538000E7F8012231464548FBF7E8F8444BCDE900
:10539000113300211920FBF7DBF80122494611A83F
:1053A000FBF7DCF800214A20FBF7D2F8012249463E
:1053B0003C48FBF7D3F81B210020FBF7C9F801227A
:1053C00031463948FBF7CAF81B215920FBF7C0F8D2
:1053D000012231463846FBF7C1F800216920FBF76E
:1053E000B7F8012241463148FBF7B8F80A21692095
:1053F000FBF7AEF80122414612A8FBF7AFF8FBF726
:105400006FF8C820FEF72EFF01225146384600F003
:10541000BDFC0120FEF766F984461E4D14AC0FCD8D
:105420000FC40FCD0FC40FCD0FC495E80F0084E853
:105430000F00149BC3F834C0FBF7C6F90446FEF70F
:1054400059F940F6B833201A98424FF02D014FF029
:10545000000094D8FBF77CF8314601221448FBF792
:105460007DF80120FEF73EF9642202FB00F0114AAC
:105470005146A2FB003211A8D20900F087FC01209E
:10548000FEF730F95146024612A800F07FFC80E793
:10549000303030009C16002000000020F48D000801
:1054A0002D2D2D000C8E0008108E00081C8E00087B
:1054B000008E000881808080EC8D000808000020AC
:1054C00010000020704700BF114B10B5986982B0E2
:1054D00040F0010098619C69002204F001040094EE
:1054E000009CDC690F2144F08054DC61DB696FF0C3
:1054F000010003F080530193019BFBF77DF9054AFE
:10550000536823F0E06343F00073536002B010BDB2
:105510000010024000000140002330B50168144A29
:1055200087B09142CDE90233CDE9043301D007B011
:1055300030BDC020032212250E4C02A9A36943F0FE
:105540000803A361A369029003F0080300930A48CB
:10555000009B03950592FBF7F7F9E36943F4001309
:10556000E361E36903F400130193019B07B030BDCD
:105570000054004000100240000C014030B50024EF
:10558000036889B0B3F1804FCDE90444CDE9064406
:1055900004D01A4A93420ED009B030BD03F504334B
:1055A000DA6942F00102DA61DB6903F00103019379
:1055B000019B09B030BD4025114B04A9DA6911489F
:1055C00042F00202DA61DA6902F002020292029A01
:1055D0009A6942F004029A619B69049503F00403FE
:1055E0000393039BFBF7B0F9224605211D20FBF72F
:1055F00003F91D20FBF736F909B030BD0004004067
:105600000010024000080140002330B5026887B056
:10561000B2F1804FCDE90233CDE9043301D007B0B8
:1056200030BD0224012503F1804303F504339A6958
:1056300002A942F004029A619B69064803F0040340
:1056400001930295019B03940594FBF77DF907B044
:1056500030BD00BF0008014070B500240368314A26
:1056600088B09342CDE90444CDE9064431D02E4AB6
:10567000934201D008B070BD0421022603252B4BB4
:105680002B48DA6942F40032DA61DA6902F4003256
:105690000292029A9A690A439A619B6904910B40AB
:1056A000039304A9039B05960795FBF74DF908237F
:1056B00004A91F480493CDE90544FBF745F92246A8
:1056C00005212620FBF798F82620FBF7CBF808B039
:1056D00070BD4FF4007102260325144B14489A69DB
:1056E00042F480429A619A6902F480420092009AE0
:1056F0009A6942F004029A619B69049103F00403E1
:10570000019304A9019B05960795FBF71DF94FF43A
:10571000806304A90648CDE905440493FBF714F916
:1057200008B070BD00380140004400400010024045
:1057300000080140704700BFFEE700BFFEE700BF62
:10574000FEE700BFFEE700BF704700BF08B5FBF7EC
:105750002FF8FFF71FFA012803D0BDE80840FFF734
:10576000D9BA08BD0148FBF7ADBD00BFB02100208C
:105770000148FDF755B800BF1C1600200148FDF791
:10578000EDB900BFDC1600200C4A08B5136833B130
:1057900069461844884209D81060184608BD08496F
:1057A0000B461160694618448842F5D900F0B0FAFA
:1057B0000C224FF0FF330260184608BD7013002022
:1057C0002026002030B44FF41F054FF000640E4B2C
:1057D0000E4A19680E4841F00101196059680A40E3
:1057E0005A601A6822F0847222F480321A601A68B1
:1057F00022F480221A605A6822F4FE025A609D60E8
:10580000846030BC704700BF001002400000FFF809
:1058100000ED00E008B5002210491148FEF7E2F85B
:10582000C0B910490E48FEF7F3F880B90E490C488C
:10583000FEF7AAF840B90A48FEF7F2F800B908BD29
:10584000BDE80840FFF73EBEFFF73CFEF3E7FFF779
:1058500039FEEBE7FFF736FEE3E700BF4801002023
:105860001C17002020000020380100200020704775
:105870000020704710B5054C01462046FEF794F80D
:105880002046FEF797F8002010BD00BF1C1700202F
:1058900010B5064C002220460549FEF77DF820464B
:1058A0000449FEF781F8002010BD00BF1C1700203E
:1058B000C81D0020E019002002680E4B9A4200D05B
:1058C000704703F5DA33D86900B540F40000D861B9
:1058D000DB6983B003F40003019300220521142047
:1058E000019BFAF789FF142003B05DF804EBFAF787
:1058F000B9BF00BF005C004000F50C71D0F8680231
:10590000FEF7A6B800EB4113D3F83C21D0F86802AB
:10591000FEF7CEB800EB4113DA6BD0F86802FEF761
:1059200007B900BFD0F86802FEF7A2B9836810B5C6
:10593000022B044601D0FFF7C5FDD4F8680201210F
:10594000FEF77EF9D4F86802BDE81040FEF750B9C2
:1059500010B50446D0F86802FEF776F9A36923B1C2
:10596000024A136943F00603136110BD00ED00E025
:10597000D0F86802FEF772B938B50446002208254F
:1059800002211C4B1C48C4F8C03218601846C3F8EA
:105990006842C3E90151C3E906221A62FBF7FCFB26
:1059A00008B1FFF78FFD002218231146D4F8C0027A
:1059B000FCF712F8582300228021D4F8C002FCF72B
:1059C0000BF8C02300228121D4F8C002FCF704F8B0
:1059D0004FF4887300220121D4F8C002FBF7FCFFCA
:1059E000D4F8C0024FF4807300228221FBF7F4FF49
:1059F000002038BDB0210020005C004008B5D0F880
:105A0000C002FBF747FC032896BF024B0220185C3C
:105A100008BD00BF448E000810B51C46D0F8C00277
:105A200013462246FBF7D0FE032896BF014B022007
:105A3000185C10BD448E000808B5D0F8C002FBF712
:105A4000F5FE032896BF024B0220185C08BD00BF7C
:105A5000448E000808B5D0F8C002FBF749FF0328C0
:105A600096BF024B0220185C08BD00BF448E0008A0
:105A700008B5D0F8C002FBF777FF032896BF024BAA
:105A80000220185C08BD00BF448E00080A06D0F84A
:105A9000C03204D403EB411393F82A01704701F09C
:105AA0007F0103EB411393F82A00704708B5D0F843
:105AB000C002FBF775FE032896BF024B0220185C5C
:105AC00008BD00BF448E000808B5D0F8C002FBF73F
:105AD000F9FE032896BF024B0220185C08BD00BFE8
